:1000000019C033C032C031C030C02FC02EC02DC087
:100010002CC02BC02AC029C028C05AC726C025C062
:1000200024C023C022C021C020C01FC01EC01DC0CC
:100030001CC01BC011241FBECFEFD4E0DEBFCDBF5C
:1000400011E0A0E0B1E0E6E7F2E102C005900D9218
:10005000AE3EB107D9F723E0AEEEB1E001C01D928C
:10006000A138B207E1F714D104C9CACF2F923F9249
:100070004F925F926F927F928F929F92AF92BF92B8
:10008000CF92DF92EF92FF920F931F93CF93DF9364
:10009000FC018DB79EB7819390837EBF6DBFDF91CA
:1000A000CF911F910F91FF90EF90DF90CF90BF9075
:1000B000AF909F908F907F906F905F904F903F9008
:1000C0002F90189540D380E94ED381E04CD380E047
:1000D0004AD341C3CF93DF9336D380E944D380E042
:1000E00042D331D381E93FD348D3C82F50D3D82F3F
:1000F00032D38C2F90E0982F88278D0F911D9695E5
:100100008795929582958F7089279F708927DF91B7
:10011000CF910895FFCF60E072EC81E090E009D8C4
:1001200088E091E034D809D3CDDF87E0B6D041E054
:1001300050E061E070E080E072D504C5EF92FF927C
:100140000F931F93CF93DF93CDB7DEB7A1970FB671
:10015000F894DEBF0FBECDBF98D181110EC0F2D48E
:10016000A1960FB6F894DEBF0FBECDBFDF91CF9141
:100170001F910F91FF90EF900895CE0147968CD17B
:100180008F89988D8038910551F71A8D113079F14A
:100190001111E5CF8091EE01813009F7CE01019672
:1001A0007C019BE08E01045F1F4FF801892F1192A3
:1001B0008A95E9F720E031E03D872C878E85817EA6
:1001C00082608E87F70111929A95E9F780E990E0B5
:1001D0009A8389838B81817E84608B8381E067D55C
:1001E000C70118D2C80116D21092EE01B8CF809183
:1001F000EE018111B4CFCE0101967C018BE0F701B5
:1002000011928A95E9F780E091E09A8389838B8146
:10021000817E82608B831C834AE050E060E070E066
:1002200081E09ED4C701F6D11093EE018A8D882318
:1002300009F4B7CF94CF0F931F93CF93DF93CDB72C
:10024000DEB72B970FB6F894DEBF0FBECDBF8E0181
:100250000F5F1F4F8BE0F80111928A95E9F780E953
:1002600090E09A8389838B81817E84608B8332DFE7
:100270008C839D83C801CED165D42B960FB6F8949C
:10028000DEBF0FBECDBFDF91CF911F910F910895BB
:1002900080E044D580E090E008952A9A229A2D9833
:1002A0002B982C98259A239A249852985A9A91E53B
:1002B0009CBD1DBC2A9890EC9EBD0DB407FEFDCFE1
:1002C0009EB52A9A9CE09A95F1F700002A9892E050
:1002D0009EBD0DB407FEFDCF9EB598E29EBD0DB448
:1002E00007FEFDCF9EB5813009F45AC008F447C01F
:1002F000833099F1873091F492E09EBD0DB407FEF2
:10030000FDCF9EB590E99EBD0DB407FEFDCF9EB515
:1003100097E09EBD0DB407FEFDCF9EB593E09EBD58
:100320000DB407FEFDCF9EB52A9A2A9893E09EBD94
:100330000DB407FEFDCF9EB59AE29EBD0DB407FE3B
:10034000FDCF9EB59FEF9EBD0DB407FEFDCF9EB5C0
:100350002A9A8917B9F180E0089592E09EBD0DB404
:1003600007FEFDCF9EB590E99EBD0DB407FEFDCF03
:100370009EB593E09EBD0DB407FEFDCFCECF92E0BB
:100380009EBD0DB407FEFDCF9EB590E99EBD0DB498
:1003900007FEFDCF9EB51EBC0DB407FEFDCFBDCF41
:1003A00092E09EBD0DB407FEFDCF9EB590E99EBDC7
:1003B0000DB407FEFDCF9EB591E09EBD0DB407FEC6
:1003C000FDCFABCF2A9882E08EBD0DB407FEFDCFE6
:1003D0008EB58CE08EBD0DB407FEFDCF8EB51EBC74
:1003E0000DB407FEFDCF8EB52A9A2A9882E08EBD05
:1003F0000DB407FEFDCF8EB58DE08EBD0DB407FEAA
:10040000FDCF8EB51EBC0DB407FEFDCF8EB52A9A6A
:100410002A9882E08EBD0DB407FEFDCF8EB580E632
:100420008EBD0DB407FEFDCF8EB580E68EBD0DB43A
:1004300007FEFDCF8EB52A9A2A9882E08EBD0DB4B4
:1004400007FEFDCF8EB580E78EBD0DB407FEFDCF54
:100450008EB580E68EBD0DB407FEFDCF8EB52A9A0F
:100460002A9882E08EBD0DB407FEFDCF8EB58FE0D9
:100470008EBD0DB407FEFDCF8EB51EBC0DB407FEBC
:10048000FDCF8EB52A9A81E0089589B182FB882735
:1004900080F991E089270895CF93DF931F92CDB71C
:1004A000DEB7DC012A9880EB8EBD0DB407FEFDCFD0
:1004B0008EB58FEF8EBD0DB407FEFDCF8EB52A9A97
:1004C0008983898186FD07C0898187FDA1C00F903E
:1004D000DF91CF91089580E92A988EBD0DB407FE73
:1004E000FDCF8EB58FEF8EBD0DB407FEFDCF8EB55F
:1004F00090E0880F991F880F991F880F991F1196F8
:100500009C938E938FEF8EBD0DB407FEFDCF2EB55D
:100510002295269527708D919C911197822B11968B
:100520009C938E938FEF8EBD0DB407FEFDCF8EB5DD
:100530008FEF8EBD0DB407FEFDCF8EB58FEF8EBD54
:100540000DB407FEFDCF2EB52F70922F990F129686
:100550008C911297817E892B12968C931297998198
:1005600093FB992790F990FB80F912968C93129740
:10057000222399F0FD013396215030E02C5F3F4F4C
:10058000CD01820F931F3FEF3EBD0DB407FEFDCF9F
:100590002EB52193E817F907B9F72A9A898186FFC2
:1005A0001DC02A9885E08EBD0DB407FEFDCF8EB527
:1005B0008CE28EBD0DB407FEFDCF8EB581E08EBD01
:1005C0000DB407FEFDCF8EB51EBC0DB407FEFDCFEA
:1005D0008EB52A9A0F90DF91CF9108952A9885E0E1
:1005E0008EBD0DB407FEFDCF8EB58CE28EBD0DB471
:1005F00007FEFDCF8EB582E08EBD0DB407FEFDCFA8
:100600008EB51EBC0DB407FEFDCF8EB52A9AE2CF83
:1006100084E962CFCF93DF931F92CDB7DEB7DC01C1
:100620002A9880EA8EBD0DB407FEFDCF8EB58FEF00
:100630008EBD0DB407FEFDCF8EB52A9A89838981C0
:1006400082FF06C0898184FD6DC082E442E002C061
:1006500080E440E02A988EBD0DB407FEFDCF8EB534
:100660008D919C91119796958795969587959695DE
:1006700087958EBD0DB407FEFDCF8EB58C9182950A
:10068000880F807E8EBD0DB407FEFDCF8EB51EBCDB
:100690000DB407FEFDCF8EB51EBC0DB407FEFDCF19
:1006A0008EB512968C911297282F26952F7080FF69
:1006B00018C020642EBD0DB407FEFDCF8EB52A9A5A
:1006C00000C000C02A98442359F140684EBD0DB4C3
:1006D00007FEFDCF8EB52A9A81E00F90DF91CF9172
:1006E00008952EBD0DB407FEFDCF8EB5222339F33C
:1006F000FD013396215030E02C5F3F4FCD01820F3A
:10070000931F21912EBD0DB407FEFDCF2EB5E81726
:10071000F907B9F72A9A00C000C02A984111D5CF2D
:1007200041E8D4CF898186FD03C084E444E092CFC0
:1007300080E00F90DF91CF9108951092B9008AE088
:100740008093B800089584EA8093BC008091BC0037
:1007500087FFFCCF089584E98093BC008091BC00A2
:1007600084FDFCCF08958093BB0084E88093BC0097
:100770008091BC0087FFFCCF089584EC8093BC007F
:100780008091BC0087FFFCCF8091BB00089584E876
:100790008093BC008091BC0087FFFCCF8091BB00A0
:1007A00008952BE0829FC0011124FC01EF5FFD4FF3
:1007B00082E080874091F4015091F5016091F6014B
:1007C0007091F70140835183628373834F5F5F4F62
:1007D0006F4F7F4F4093F4015093F5016093F60102
:1007E0007093F7010895CF93DF939BE0899FF00109
:1007F0001124EF5FFD4FA0910201B0E0119624811A
:100800003581A20FB31F97E0899FE0011124C55DD8
:10081000DE4F2D819E81AD014150510957834683A2
:100820002C93A681B7819D012150310937832683FE
:100830009C93268137812251310937832683118683
:100840001286DF91CF91ADCFF894209A289A95D453
:10085000882319F084EC91E09AD4FFCF1F93CF93B3
:10086000DF938F3F09F44AC0C82FD0E09BE0899FF7
:10087000F0011124EF5FFD4F668177810480F581DF
:10088000E02DCF0102966817790748F0808121E0BA
:100890008A3A31F481818A3A19F420E001C021E0DA
:1008A0008091020190E0AC014F5F5F4F4E0F5F1FE0
:1008B0004617570760F0E80FF91F82818A3A39F42A
:1008C00083818A3A21F42223C9F011E001C012E0A9
:1008D00054D4882391F08DEB91E059D4113019F460
:1008E00084EB91E002C08CEA91E051D481EA91E07E
:1008F0004ED4CE0157D48AE043D4A6DFDF91CF9106
:100900001F910895DF92EF92FF920F931F93CF9361
:10091000DF93CDB7DEB7ED8480910601813009F019
:100920004AC0F8942AD4811105C060E072EC81E0DD
:1009300090E0FFD383E424D48AE322D48091F801A9
:100940009091F9012FD480E21BD484E519D48AE375
:1009500017D48091F10190E025D480E211D48A85EA
:100960009B8515D488E20CD4EE20D1F08E01025F75
:100970001F4FD12CF12C81E0E81AF108F8018D2DE0
:1009800090E08E159F054CF40E5F1F4F8081918182
:1009900009D48CE2F5D3D394F1CF8081918102D434
:1009A00089E2EED388ED91E0F2D38C8590E0FAD322
:1009B0008AE0E6D3789480910701813009F444DF1E
:1009C000DF91CF911F910F91FF90EF90DF900895ED
:1009D0006F927F928F929F92AF92BF92CF92DF924F
:1009E000EF92FF920F931F93CF93DF93D091F1017A
:1009F000DF3FC9F08D2F90E02BE0D29FF001112452
:100A0000EF5FFD4F208521110EC027E0289FF001E8
:100A1000299FF00D1124E55DFE4F8381813009F09F
:100A200082C08D2FBEDE70910301E1E0F2E08BE227
:100A3000682E81E0782E80E0CFEF17E00BE087177B
:100A4000A1F19085923059F5CF3F41F1D301129633
:100A50006C914C2F50E0149F9001159F300D112484
:100A6000255D3E4FD90112969C919617B8F06913F7
:100A700016C0049F9001059F300D11242F5F3D4F3C
:100A800080809180A280B380D901CD90DD90ED90DF
:100A9000FC908C149D04AE04BF0408F4C82F8F5F33
:100AA0003B96B7E06B0E711CCACFCF3F39F02BE0FD
:100AB000C29FF0011124EF5FFD4F1086DC1799F102
:100AC00080910501882321F08D2FC8DE8C2FC6DE92
:100AD000C093F101CF3F29F46091F2017091F301CD
:100AE00008C08BE0C89FF0011124EF5FFD4F6681C5
:100AF0007781DF3F39F0ABE0DA9FC0011124895FD5
:100B00009D4F02C082EF91E0DF91CF911F910F9135
:100B1000FF90EF90DF90CF90BF90AF909F908F901D
:100B20007F906F90A3CADF91CF911F910F91FF909B
:100B3000EF90DF90CF90BF90AF909F908F907F907D
:100B40006F900895F894E091F1018BE0E89FF00137
:100B50001124EF5FFD4F83E080873ADF80E0089546
:100B6000909104018917C0F05F934F937F936F9327
:100B70001F928F9383E08F938F9385E991E09F93EA
:100B80008F93C0DE8DB79EB70A960FB6F8949EBFBE
:100B90000FBE8DBF83E00895282F30E095E0899F38
:100BA000F0011124E35DFD4F94819130C9F45F930E
:100BB0004F937F936F931F928F9383E08F9387E080
:100BC0008F9385E991E09F938F939CDE8DB79EB7BD
:100BD0000A960FB6F8949EBF0FBE8DBF87E00895AA
:100BE0006115710511F461E070E0F89485E0829F71
:100BF000F001839FF00D1124E35DFD4F8091F8011A
:100C00009091F901680F791FDF016D937D93428305
:100C100011965C9381E08483789480E008959091AC
:100C200004018917C0F05F934F937F936F931F92D6
:100C30008F9383E08F938F9389E891E09F938F93B5
:100C400061DE8DB79EB70A960FB6F8949EBF0FBEB1
:100C50008DBF83E0089595E0899FF0011124E35D45
:100C6000FD4F94819130C9F45F934F937F936F93BD
:100C70001F928F9383E08F9387E08F9389E891E0B1
:100C80009F938F933FDE8DB79EB70A960FB6F89469
:100C90009EBF0FBE8DBF87E00895F8946083718377
:100CA0004283538381E08483789480E00895909117
:100CB0000401891798F01F928F9381E08F9383E04E
:100CC0008F938DE791E09F938F931CDE0F900F9091
:100CD0000F900F900F900F9083E0089595E0989FEC
:100CE000F0011124E35DFD4F2481211112C01F92F8
:100CF0008F9381E08F939F938DE791E09F938F93E4
:100D000001DE0F900F900F900F900F900F9085E0E5
:100D10000895F8941482789480E008950F931F93B7
:100D2000CF93DF93F8941092F9011092F80110928A
:100D3000F4011092F5011092F6011092F7018FEF75
:100D40008093F101109281001092800081E08093E5
:100D50006F00A0910001B0910101A231B10508F42A
:100D60008BC0AF38B10508F48BC0A23784E0B80758
:100D700008F48AC0A83C81E1B80708F489C0AD3105
:100D800087E4B80708F488C01092F0011092EF01D0
:100D9000C4E0609103018091020190E0AC014E5FDC
:100DA0005F4F0196E7E3F2E0A1E0B2E020E03AEA2B
:100DB00073E02617A9F01596FC93EE9314973083F1
:100DC00031838C010E0F1F1F17961C930E931697DD
:100DD00018967C9318972F5FE40FF51F1B96E9CFA9
:100DE000249FC001259F900D1124E0910502F091F0
:100DF0000602E80FF91F4AEA40838091020190E061
:100E0000029650910301589F9001599F300D112473
:100E1000E0910502F0910602E20FF31F41839091E9
:100E20000401EDE2F2E080E0891721F014828F5F87
:100E30003596FACFD0E017E080910301D81760F41F
:100E40001D9FF0011124E55DFE4F8081813011F47A
:100E50008D2FC9DCDF5FF0CF8091EF019091F00121
:100E60009093850080938400CF5FC0938100DF91D1
:100E7000CF911F910F91ACCDC0E080E090E00FC00A
:100E8000C1E081E090E00BC0C2E082E090E007C0EA
:100E9000C3E083E090E003C0C4E084E090E0880F0A
:100EA000991F880F991FFC01E759FE4F208131815E
:100EB00042815381C8D128EE33E040E050E0A1D117
:100EC0003195219531093093F0012093EF0161CFE5
:100ED0001F920F920FB60F9211247F928F929F92C2
:100EE000AF92BF92CF92DF92EF92FF920F931F9338
:100EF0002F933F934F935F936F937F938F939F9322
:100F0000AF93BF93CF93DF93EF93FF938091EF0164
:100F10009091F00190938500809384008091F80176
:100F20009091F9018F3F2FEF9207B9F41092F901D8
:100F30001092F80110E085E0B82E97E0A92E2BE082
:100F4000922E02E0C7E4D1E033E0832E44E0742E19
:100F500056E5E52E51E0F52E16C001969093F90165
:100F60008093F801E7CFC12ED12CBC9CF001BD9C31
:100F7000F00D1124DF01A35DBD4F14962C91149741
:100F8000213031F01F5F80910401181760F3B2C067
:100F90004D915C918091F8019091F90148175907A2
:100FA00089F7EF5DFE4F81819081913051F140F0E2
:100FB000923009F08BC00380F481E02D099586C042
:100FC00090910301891728F01F928F932F938F928E
:100FD0000CC0989EF0011124EF5FFD4F9085933077
:100FE00071F01F928F932F937F92FF92EF928ADC82
:100FF0000F900F900F900F900F900F9067C0F3DB42
:1010000065C020910301821798F092811F929F93EF
:101010001F928F930F938F92DF93CF9373DC8DB7D3
:101020009EB708960FB6F8949EBF0FBE8DBF4EC0F8
:10103000282F30E0A29ED001A39EB00D1124A55D03
:10104000BE4F11964C91413099F022811F922F93FF
:101050001F928F930F939F93DF93CF9353DC8DB7A2
:101060009EB708960FB6F8949EBF0FBE8DBF2EC0D8
:10107000929ED001939EB00D1124AF5FBD4F189684
:101080002C911897233099F492811F929F931F926D
:101090008F930F93AF92DF93CF9334DC8DB79EB7CE
:1010A00008960FB6F8949EBF0FBE8DBF0FC0328159
:1010B00019969C911997932B19969C931997213007
:1010C00029F41A962C91922309F06BDBBC9CF00159
:1010D000BD9CF00D1124E35DFD4F8281938100974B
:1010E00011F414824FCF20813181820F931F91839D
:1010F000808348CF6DDCFF91EF91DF91CF91BF915D
:10110000AF919F918F917F916F915F914F913F919F
:101110002F911F910F91FF90EF90DF90CF90BF9094
:10112000AF909F908F907F900F900FBE0F901F9069
:10113000189528E12093C10026E02093C200109268
:10114000C5009B01AC0184E0220F331F441F551FD3
:101150008A95D1F760E070E488E390E052D02150A6
:101160002093C4008091C00087FF03C08091C60017
:10117000F9CF81E0809300020895809100020895E4
:101180009091C00095FFFCCF8093C6000895CF9347
:10119000DF93EC018991882311F0F2DFFBCFDF911F
:1011A000CF910895CF93DF93009721F480E3DF91EF
:1011B000CF91E6CF24E0CAE0D0E0E22FF0E0E650A5
:1011C000FE4FBE010AD0805D8083CB012150009785
:1011D000A1F7CF01DF91CF91DACFAA1BBB1B51E161
:1011E00007C0AA1FBB1FA617B70710F0A61BB70B97
:1011F000881F991F5A95A9F780959095BC01CD013C
:101200000895A1E21A2EAA1BBB1BFD010DC0AA1F47
:10121000BB1FEE1FFF1FA217B307E407F50720F05F
:10122000A21BB30BE40BF50B661F771F881F991FDA
:101230001A9469F760957095809590959B01AC0123
:10124000BD01CF01089509D0A59F900DB49F900DC9
:10125000A49F800D911D11240895A29FB001B39FFA
:10126000C001A39F01D0B29F700D811D1124911D5B
:061270000895F894FFCF81
:101276000A005004020101015374617274757054BE
:1012860061736B206175666765727566656E2E0A99
:101296000000020000000003000000010000010140
:1012A6008A0001006400018B0000000500019E0019
:1012B60000000A00011B01414C41524D3A5365742E
:1012C6004576656E7400414C41524D3A41637469EE
:1012D600766174655461736B00004038000008073E
:1012E6000000E1000040380000100E000043616E6F
:1012F60063656C416C61726D005365744162734144
:101306006C61726D0053657452656C416C61726DEF
:10131600002C207461736B2049442000636F727245
:10132600757074006F766572666C6F7700537461C2
:10133600636B20002D2D2D20464154414C204552F3
:10134600524F52202D2D2D002072657475726E65D8
:0E13560064206572726F7220636F6465200000
:00000001FF
